:020000040000FA
:100000000C9462000C948A000C948A000C948A0070
:100010000C948A000C948A000C948A000C948A0038
:100020000C948A000C948A000C948A000C948A0028
:100030000C948A000C948A000C948A000C948A0018
:100040000C944A050C948A000C9418050C94F20444
:100050000C948A000C948A000C948A000C948A00F8
:100060000C9494050C948A000000000025002800E0
:100070002B0000000000240027002A0000000000E0
:1000800023002600290004040404040404040202DA
:100090000202020203030303030301020408102007
:1000A0004080010204081020010204081020000012
:1000B0000008000201000003040700000000000027
:1000C0000000B30611241FBECFEFD8E0DEBFCDBFC6
:1000D00011E0A0E0B1E0E0EDF1E102C005900D9289
:1000E000A635B107D9F722E0A6E5B1E001C01D921F
:1000F000AE3CB207E1F710E0C2E6D0E004C02197C1
:10010000FE010E94E008C136D107C9F70E94FB0634
:100110000C94E6080C94000008950895AF92BF92E5
:10012000CF92DF92EF92FF920F931F93CF93DF93C3
:100130006C017B018B01040F151FEB015E01AE18F2
:10014000BF08C017D10759F06991D601ED91FC9114
:100150000190F081E02DC6010995892B79F7C50141
:10016000DF91CF911F910F91FF90EF90DF90CF9093
:10017000BF90AF900895FC01538D448D252F30E042
:10018000842F90E0821B930B541710F0CF960895A4
:1001900001970895FC01918D828D981761F0A28DD1
:1001A000AE0FBF2FB11D5D968C91928D9F5F9F7397
:1001B000928F90E008958FEF9FEF0895FC01918D4D
:1001C000828D981731F0828DE80FF11D858D90E0BA
:1001D00008958FEF9FEF0895FC01918D228D892F57
:1001E00090E0805C9F4F821B91098F73992708953F
:1001F00089E192E00E94EC0021E0892B09F420E0E3
:10020000822F089580E090E0892B29F00E94F80069
:1002100081110C9400000895FC01A48DA80FB92F42
:10022000B11DA35ABF4F2C91848D90E001968F731E
:100230009927848FA689B7892C93A089B1898C913D
:10024000837080648C93938D848D981306C002888C
:10025000F389E02D80818F7D80830895EF92FF9256
:100260000F931F93CF93DF93EC0181E0888F9B8DD9
:100270008C8D98131AC0E889F989808185FF15C093
:100280009FB7F894EE89FF896083E889F9898081B6
:100290008370806480839FBF81E090E0DF91CF9185
:1002A0001F910F91FF90EF900895F62E0B8D10E0A7
:1002B0000F5F1F4F0F731127E02E8C8D8E110CC016
:1002C0000FB607FCFACFE889F989808185FFF5CF61
:1002D000CE010E940C01F1CFEB8DEC0FFD2FF11D33
:1002E000E35AFF4FF0829FB7F8940B8FEA89FB899E
:1002F00080818062CFCFCF93DF93EC01888D8823FC
:10030000B9F0AA89BB89E889F9898C9185FD03C078
:10031000808186FD0DC00FB607FCF7CF8C9185FF5D
:10032000F2CF808185FFEDCFCE010E940C01E9CF95
:10033000DF91CF910895833081F028F4813099F0D6
:100340008230A9F008958730A9F08830C9F0843050
:10035000B1F4809180008F7D03C0809180008F7701
:1003600080938000089584B58F7784BD089584B507
:100370008F7DFBCF8091B0008F778093B000089580
:100380008091B0008F7DF9CFCF93DF93E8EBF0E061
:100390008491E4EAF0E0D491E0E9F0E0C491CC2368
:1003A000A1F081110E949B01EC2FF0E0EE0FFF1FE6
:1003B000E458FF4FA591B491EC91ED2381E090E0DA
:1003C00009F480E0DF91CF91089580E090E0FACFCA
:1003D0001F93CF93DF93282F30E0F901E255FF4FB1
:1003E0008491F901E656FF4FD491F901EA57FF4F86
:1003F000C491CC23A9F0162F81110E949B01EC2FF0
:10040000F0E0EE0FFF1FE859FF4FA591B4918FB7B1
:10041000F894EC91111108C0D095DE23DC938FBFC6
:10042000DF91CF911F910895DE2BF8CF3FB7F8945D
:1004300080910D0290910E02A0910F02B0911002D6
:1004400026B5A89B05C02F3F19F00196A11DB11D2F
:100450003FBFBA2FA92F982F8827BC01CD01620F6B
:10046000711D811D911D42E0660F771F881F991F26
:100470004A95D1F708958F929F92AF92BF92CF92F3
:10048000DF92EF92FF924B015C010E9416026B011A
:100490007C010E9416026C197D098E099F09683E35
:1004A000734081059105A8F321E0821A9108A10803
:1004B000B10888EEC80E83E0D81EE11CF11C81143F
:1004C0009104A104B10429F7FF90EF90DF90CF9041
:1004D000BF90AF909F908F900895089520919701BD
:1004E000260F3327331F21323105ECF42091E00130
:1004F000FC0190E080E0243069F082E00895A09152
:1005000097012191AC0149585E4FA40FB52FB11D41
:100510002C930196861798F380919701680F60934A
:10052000970180E0089581E008951092E00181E054
:100530008093DF011092BA0161E082E10E94E8013C
:1005400061E083E10E94E801E9EBF0E080818E7FC9
:10055000808380818D7F808388E48093B80085E4E8
:100560008093BC000895CF93DF9391E09093760140
:100570008823B9F0C091B800D091BA008091BC0036
:100580008A7B8093BC0060E082E10E94E80160E029
:1005900083E10E94E8010E949502D093BA00C093C3
:1005A000B800DF91CF9108950895E09118028091ED
:1005B0001702E81730F4F0E0EA5AFE4F808190E02D
:1005C00008958FEF9FEF0895909118028091170280
:1005D0002FEF3FEF981748F4E92FF0E0EA5AFE4F6B
:1005E000208130E09F5F90931802C90108958091A7
:1005F000170290911802891B990B0895CF92DF92F0
:10060000EF92FF920F931F93CF93DF937C01CB0167
:100610008A012091E601222389F0EB016B01C40ECF
:10062000D51ECC15DD0569F06991D701ED91FC91DE
:100630000190F081E02DC7010995F3CF642F0E944E
:100640006E02C801DF91CF911F910F91FF90EF9043
:10065000DF90CF900895CF93DF931F92CDB7DEB791
:1006600069832091E6012223F9F0209115022032BE
:1006700058F021E030E0FC013383228390E080E0F9
:100680000F90DF91CF91089580911602E82FF0E04E
:10069000E951FE4F998190838F5F8093160280937A
:1006A000150281E090E0ECCF61E0CE0101960E945E
:1006B0006E02F7CFCF92DF92EF92FF920F931F93CC
:1006C000CF93DF93FC01C48121E02093E601C09326
:1006D000070210921602109215028385682B86EB92
:1006E00092E00E942B03D0911502D13208F092C003
:1006F0000E9416026B017C018091E001811165C0AE
:1007000082E08093E00181E08093DF018FEF8093AE
:10071000DE011092DD01D093DC01A7EEB1E0ECEB3D
:10072000F1E080E0D81385C01092BB018091BB013D
:10073000CC0FC82BC093BB018091BA01813009F066
:100740007CC01092BA010E9416026B017C0180915C
:10075000BB018093BB008091E2019091E301A091E5
:10076000E401B091E501892B8A2B8B2B99F00E9433
:1007700016020091E2011091E3012091E401309111
:10078000E5016C197D098E099F09061717072807CF
:100790003907E0F18091BC0083FDD9CF85EC8093CF
:1007A000BC000E9416026B017C018091E001823046
:1007B00009F445C08091DE018F3F61F18091DE0137
:1007C000803241F18091DE0125C08091E20190915B
:1007D000E301A091E401B091E501892B8A2B8B2BD9
:1007E00009F48ACF0E9416020091E2011091E30100
:1007F0002091E4013091E5016C197D098E099F0972
:10080000061717072807390708F076CF8091E1010E
:100810000E94B30210921602109215021092E60185
:10082000DF91CF911F910F91FF90EF90DF90CF90CC
:1008300008959D9191938F5F75CF85EEB0CF809194
:10084000E2019091E301A091E401B091E501892BCF
:100850008A2B8B2B09F4A9CF0E9416020091E2018A
:100860001091E3012091E4013091E5016C197D09BB
:100870008E099F09061717072807390708F095CF33
:10088000C5CF90E080E008950F931F93CF938C0124
:10089000C62F0E945A036C2F6460C8010E945A033D
:1008A0006C2F6B7FC8010E945A0383EC90E0019784
:1008B000F1F7CF911F910F9108950F931F93CF934D
:1008C000DF938C01D62FC42F607F642B0E944404D9
:1008D00080E1D89FB00111246C2BC801DF91CF912A
:1008E0001F910F910C944404CF93DF93CDB7DEB7E3
:1008F00028970FB6F894DEBF0FBECDBF98E0E0E0BA
:10090000F1E0DE01119601900D929A95E1F7909138
:10091000CA02981708F48FEF90E0880F991F21E022
:1009200030E02C0F3D1F820F931FFC016081606837
:1009300040E082EC92E028960FB6F894DEBF0FBE3E
:10094000CDBFDF91CF910C945D0441E00E945D0426
:1009500081E090E00895FB0101900020E9F73197D4
:10096000AF01461B570BDC01ED91FC910280F38136
:10097000E02D099485ED8093BC008091E201909177
:10098000E301A091E401B091E5010796A11DB11D1D
:1009900023E0B695A795979587952A95D1F720914D
:1009A000BC0024FD03C01092E00108954091E201D3
:1009B0005091E3016091E4017091E501452B462BD4
:1009C000472B69F30097A105B10541F025E32A956E
:1009D000F1F700000197A109B109E1CF8091E10190
:1009E0000C94B3021F920F920FB60F9211242F9303
:1009F0003F934F935F936F937F938F939F93AF93A7
:100A0000BF93EF93FF9389E192E00E940C01FF9165
:100A1000EF91BF91AF919F918F917F916F915F9176
:100A20004F913F912F910F900FBE0F901F901895EF
:100A30001F920F920FB60F9211242F938F939F93B3
:100A4000EF93FF93E0912902F0912A028081E091D7
:100A50002F02F091300282FD1BC090818091320202
:100A60008F5F8F7320913302821741F0E091320241
:100A7000F0E0E75EFD4F958F80933202FF91EF919A
:100A80009F918F912F910F900FBE0F901F901895EF
:100A90008081F4CF1F920F920FB60F9211242F93E3
:100AA0003F938F939F93AF93BF938091090290914F
:100AB0000A02A0910B02B0910C023091080223E0CF
:100AC000230F2D3758F50196A11DB11D2093080263
:100AD0008093090290930A02A0930B02B0930C0238
:100AE00080910D0290910E02A0910F02B091100220
:100AF0000196A11DB11D80930D0290930E02A0934B
:100B00000F02B0931002BF91AF919F918F913F91CF
:100B10002F910F900FBE0F901F90189526E8230F6E
:100B20000296A11DB11DD2CF1F920F920FB60F9248
:100B300011242F933F934F935F936F937F938F93E2
:100B40009F93AF93BF93EF93FF938091B900887FFA
:100B5000803609F44AC0F0F5883209F4A7C018F5C8
:100B6000803109F49BC0B8F4882309F4F9C08830B7
:100B700009F494C0FF91EF91BF91AF919F918F9134
:100B80007F916F915F914F913F912F910F900FBE89
:100B90000F901F901895883109F488C0803251F762
:100BA0008093DE0114C0803409F49DC040F480338A
:100BB000B9F38833F9F68093DE0185ECB0C0803557
:100BC00009F485C0883509F496C0883499F60E94E6
:100BD000BA04D0CF883909F48CC038F5883729F0A9
:100BE00050F4883611F0803729F683E08093E001D5
:100BF0001092B90157C0883809F47BC0803919F0C8
:100C0000803809F0B7CF8091B901803208F071C007
:100C1000E091B90181E08E0F8093B9018091BB0012
:100C2000F0E0E756FE4F80833DC0803B39F0E0F4B2
:100C3000803A09F479C0883A09F09CCF84E0809327
:100C4000E0011092980110929701E0911302F09147
:100C5000140209958091970181110FC081E0809362
:100C600097011092770109C0803C09F4A6CF883C17
:100C700009F4A3CF883B09F07DCFE091980181E092
:100C80008E0F80939801F0E0E958FE4F80818093A9
:100C9000BB00909198018091970129C08091BB0180
:100CA0008093BB0085EC8093BC0064CF9091DD0104
:100CB0008091DC01981758F5E091DD0181E08E0FFD
:100CC0008093DD01F0E0E454FE4F8081E9CFE091B4
:100CD000DD0181E08E0F8093DD018091BB00F0E0AB
:100CE000E454FE4F80839091DD018091DC019817E0
:100CF000C8F285E8D8CFE091DD0181E08E0F8093C6
:100D0000DD018091BB00F0E0E454FE4F80838091D0
:100D1000DF0181115CCF81E08093BA0184EA809386
:100D2000BC001092E00126CF85EC8093BC001092AD
:100D3000E0018091B901803230F4E091B901F0E036
:100D4000E756FE4F10826091B90170E0E091110208
:100D5000F091120289E991E009951092B9010ACF48
:100D60001092DE0134CFE9E1F2E01382128288EEC4
:100D700093E0A0E0B0E084839583A683B7832CE062
:100D800031E03183208325EC30E03587248724EC63
:100D900030E03787268720EC30E0318B208B21EC48
:100DA00030E0338B228B22EC30E0358B248B26EC29
:100DB00030E0378B268B118E128E138E148EE6EB5D
:100DC000F2E01382128284839583A683B7838EE137
:100DD00091E091838083E2ECF2E01382128280E35F
:100DE00091E09183808387E2848380E1818782E040
:100DF000828713860895CF93DF93CDB7DEB7A1978F
:100E00000FB6F894DEBF0FBECDBF789484B5826074
:100E100084BD84B5816084BD85B5826085BD85B59E
:100E2000816085BD80916E00816080936E0010921C
:100E30008100809181008260809381008091810097
:100E40008160809381008091800081608093800028
:100E50008091B10084608093B1008091B000816086
:100E60008093B00080917A00846080937A008091B2
:100E70007A00826080937A0080917A00816080930A
:100E80007A0080917A00806880937A001092C10085
:100E9000E0912902F0912A0282E08083E09125020C
:100EA000F09126021082E0912702F09128028FEC47
:100EB000808310923102E0912D02F0912E0286E0A3
:100EC0008083E0912B02F0912C02808180618083ED
:100ED000E0912B02F0912C02808188608083E09168
:100EE0002B02F0912C02808180688083E0912B029C
:100EF000F0912C0280818F7D8083E4EAF0E02491E0
:100F0000E0E9F0E084918823C9F090E0880F991F10
:100F1000FC01EE58FF4F45915491FC01E859FF4FF9
:100F2000A591B4919FB7F894FA018081209582230E
:100F300080838C91E22FE823EC939FBFE1EAF0E0FD
:100F40002491EDE8F0E08491882399F090E0880FF7
:100F5000991FFC01EE58FF4FA591B491FC01E8598F
:100F6000FF4F859194918FB7F894EC91E22BEC931D
:100F70008FBF109218021092170210921602109250
:100F800015020E9495028CE890E0909314028093E1
:100F900013028DE890E09093120280931102109258
:100FA000C7028091CC02823018F098E09093C7027B
:100FB0008093CA0262E370E080E090E00E943B020E
:100FC0006091CD0282EC92E00E945A0368EE73E0D9
:100FD00080E090E00E943B0260E382EC92E00E949D
:100FE00044040BE416E4C8010197F1F760E382ECD6
:100FF00092E00E944404C8010197F1F760E382EC9B
:1010000092E00E94440483E592E00197F1F760E2E8
:1010100082EC92E00E9444046091C702606240E06A
:1010200082EC92E00E945D0484E08093C80240E07C
:101030006CE082EC92E00E945D0440E061E082ECB2
:1010400092E00E945D040BE31FE1C8010197F1F7F4
:1010500082E08093C90240E066E082EC92E00E9468
:101060005D0440E062E082EC92E00E945D04C80111
:101070000197F1F788E08093CD0260E082EC92E086
:101080000E945A0380E00E94740468E371E082ECDD
:1010900092E00E94AB048AE0882E912CA12CB12C06
:1010A00000E010E00E94C4016C01990FEE08FF08F7
:1010B000F7FE4EC06DE289E192E00E942E012227E8
:1010C0003327A9012C193D094E095F0919A2CE0148
:1010D00081967C01CA01B901A50194010E94BE0854
:1010E000605DF70162937F012115310541055105CE
:1010F00089F7E114F10429F0B70189E192E00E9437
:10110000AB0467E471E089E192E00E94AB040E94C5
:10111000C401682F87E00E94E80181E00E94740406
:101120000E94C4016AE471E0019711F060E571E08A
:1011300082EC92E00E94AB040115110509F4B2CFD4
:101140000E94F800882309F4ADCF0E940000AACFC6
:10115000A701960119A2CE0181967C01CA01B901AD
:10116000A50194010E94BE08605DF70162937F01B2
:10117000211531054105510589F7BBCFA1E21A2E92
:10118000AA1BBB1BFD010DC0AA1FBB1FEE1FFF1F2B
:10119000A217B307E407F50720F0A21BB30BE40B7B
:1011A000F50B661F771F881F991F1A9469F76095C2
:1011B0007095809590959B01AC01BD01CF0108957C
:1011C000EE0FFF1F0590F491E02D0994F894FFCFE6
:1011D0000000400014005400000000002E018E00AA
:1011E000BB007B01EC00CA00DE00000000002B0306
:1011F000FE024104D402F702E402D502000000001E
:10120000A5048E0041046D022020536F756E64208A
:1012100053656E736F72000D0A004E6F697365003F
:06122000517569657400C0
:107E0000112484B714BE81FFF0D085E080938100F7
:107E100082E08093C00088E18093C10086E0809377
:107E2000C20080E18093C4008EE0C9D0259A86E02C
:107E300020E33CEF91E0309385002093840096BBD3
:107E4000B09BFECF1D9AA8958150A9F7CC24DD24C4
:107E500088248394B5E0AB2EA1E19A2EF3E0BF2EE7
:107E6000A2D0813461F49FD0082FAFD0023811F036
:107E7000013811F484E001C083E08DD089C08234E0
:107E800011F484E103C0853419F485E0A6D080C0E4
:107E9000853579F488D0E82EFF2485D0082F10E0AE
:107EA000102F00270E291F29000F111F8ED06801E7
:107EB0006FC0863521F484E090D080E0DECF843638
:107EC00009F040C070D06FD0082F6DD080E0C81688
:107ED00080E7D80618F4F601B7BEE895C0E0D1E017
:107EE00062D089930C17E1F7F0E0CF16F0E7DF06D8
:107EF00018F0F601B7BEE89568D007B600FCFDCFD4
:107F0000A601A0E0B1E02C9130E011968C91119780
:107F100090E0982F8827822B932B1296FA010C0160
:107F200087BEE89511244E5F5F4FF1E0A038BF0790
:107F300051F7F601A7BEE89507B600FCFDCF97BE46
:107F4000E89526C08437B1F42ED02DD0F82E2BD052
:107F50003CD0F601EF2C8F010F5F1F4F84911BD097
:107F6000EA94F801C1F70894C11CD11CFA94CF0C13
:107F7000D11C0EC0853739F428D08EE10CD085E9AC
:107F80000AD08FE07ACF813511F488E018D01DD067
:107F900080E101D065CF982F8091C00085FFFCCF94
:107FA0009093C60008958091C00087FFFCCF809118
:107FB000C00084FD01C0A8958091C6000895E0E648
:107FC000F0E098E1908380830895EDDF803219F02E
:107FD00088E0F5DFFFCF84E1DECF1F93182FE3DFCA
:107FE0001150E9F7F2DF1F91089580E0E8DFEE27F6
:047FF000FF270994CA
:027FFE00040479
:00000001FF
