:020000040800F2
:1000000010040020A9010008E7110008A51000084D
:10001000E5110008B5020008C11200080000000048
:10002000000000000000000000000000EB110008CC
:10003000B702000800000000E9110008ED110008F7
:10004000C3010008C3010008C3010008C301000880
:10005000C3010008C3010008C3010008C301000870
:10006000C3010008C3010008C3010008C301000860
:10007000C3010008C3010008C3010008C301000850
:10008000C3010008C3010008C3010008000000000C
:10009000000000000000000000000000C301000894
:1000A000C3010008C3010008C3010008C301000820
:1000B000C3010008C3010008C3010008C301000810
:1000C000C3010008C3010008C3010008C301000800
:1000D000C3010008C3010008C301000800000000BC
:1000E000C3010008C3010008C301000800000000AC
:1000F000000000000000000000000000C301000834
:1001000000000000C3010008C3010008C30100088B
:1001100000000000000000000000000000000000DF
:10012000C3010008C3010008C3010008C30100089F
:10013000C3010008000000000000000000000000F3
:10014000000000000000000000000000C3010008E3
:10015000C3010008C3010008C3010008C30100086F
:10016000C3010008C30100080000000000000000F7
:10017000000000000000000000000000000000007F
:1001800000000000C30100080000000000000000A3
:10019000C3010008DFF80CD000F07AF800480047EF
:1001A0000113000810040020064880470648004755
:1001B000FEE7FEE7FEE7FEE7FEE7FEE7FEE7FEE717
:1001C000FEE7FEE761120008950100082DE9F05FE7
:1001D0000546002092469B468846064681464024B6
:1001E0001BE0284641464746224600F041F8534668
:1001F0005A46C01A914110D311461846224600F0C3
:1002000028F82D1A67EB01084F46224601200021ED
:1002100000F01FF817EB00094E41201EA4F1010465
:10022000DFDC484631462A464346BDE8F09FD2B25D
:1002300001E000F8012B491EFBD270470022F6E7CF
:1002400010B513460A4604461946FFF7F0FF20464C
:1002500010BD202A04DB203A00FA02F1002070478A
:100260009140C2F1200320FA03F3194390407047F4
:10027000202A04DB203A21FA02F00021704721FAFB
:1002800002F3D040C2F12002914008431946704762
:10029000064C074D06E0E06840F0010394E80700D3
:1002A00098471034AC42F6D3FFF778FFA413000848
:1002B000C4130008FEE7704770B52B4D01220421DE
:1002C000284600F0CBFB01221021284600F0C6FB97
:1002D00001224021284600F0C1FB012214022146E0
:1002E000284600F0BBFB214D01220421284600F0E6
:1002F000B5FB01221021284600F0B0FB012240216D
:10030000284600F0ABFB01222146284600F0A6FB60
:10031000174D01220421284600F0A0FB01221021E4
:10032000284600F09BFB01224021284600F096FB66
:1003300001222146284600F091FB0E4D01220421A6
:10034000284600F08BFB01221021284600F086FB96
:1003500001224021284600F081FB21462846BDE8C5
:100360007040012200F07ABB00000240000402400D
:1003700000080240000C024010B52B4C0122022163
:10038000204600F06BFB01220821204600F066FBAE
:1003900001222021204600F061FB0122802120461D
:1003A00000F05CFB214C01220221204600F056FBAC
:1003B00001220821204600F051FB01222021204685
:1003C00000F04CFB01228021204600F047FB184C36
:1003D00001220221204600F041FB01220821204693
:1003E00000F03CFB01222021204600F037FB0122D7
:1003F0008021204600F032FB0E4C012202212046D3
:1004000000F02CFB01220821204600F027FB0122EE
:100410002021204600F022FB20460122BDE81040AA
:10042000802100F01BBB00000000024000040240DD
:1004300000080240000C024070B5444E0122042125
:10044000304600F00BFB4FF49674204600F02AFA79
:1004500001221021304600F001FB204600F022FA74
:1004600001224021304600F0F9FA204600F01AFA45
:10047000012215022946304600F0F0FA204600F02D
:1004800011FA334E01220421304600F0E7FA2046EB
:1004900000F008FA01221021304600F0DFFA204671
:1004A00000F000FA01224021304600F0D7FA204641
:1004B00000F0F8F901222946304600F0CFFA204634
:1004C00000F0F0F9234E01220421304600F0C6FA74
:1004D000204600F0E7F901221021304600F0BEFA74
:1004E000204600F0DFF901224021304600F0B6FA44
:1004F000204600F0D7F901222946304600F0AEFA36
:10050000204600F0CFF9144E01220421304600F0BD
:10051000A5FA204600F0C6F901221021304600F06D
:100520009DFA204600F0BEF901224021304600F03D
:1005300095FA204600F0B6F901222946304600F02F
:100540008DFA2046BDE8704000F0ACB900000240D2
:100550000004024000080240000C024070B5444D07
:1005600001220221284600F079FA4FF496742046C1
:1005700000F098F901220821284600F06FFA204681
:1005800000F090F901222021284600F067FA204669
:1005900000F088F901228021284600F05FFA204609
:1005A00000F080F9334D01220221284600F056FA6E
:1005B000204600F077F901220821284600F04EFA83
:1005C000204600F06FF901222021284600F046FA6B
:1005D000204600F067F901228021284600F03EFA0B
:1005E000204600F05FF9244D01220221284600F048
:1005F00035FA204600F056F901220821284600F07D
:100600002DFA204600F04EF901222021284600F064
:1006100025FA204600F046F901228021284600F004
:100620001DFA204600F03EF9144D01220221284611
:1006300000F014FA204600F035F90122082128467E
:1006400000F00CFA204600F02DF901222021284666
:1006500000F004FA204600F025F901228021284606
:1006600000F0FCF92046BDE8704000F01BB9000026
:10067000000002400004024000080240000C02405A
:1006800070B5844E01220221304600F0E7F94FF4A4
:100690009674204600F006F901220421304600F04D
:1006A000DDF9204600F0FEF801220821304600F076
:1006B000D5F9204600F0F6F801221021304600F06E
:1006C000CDF9204600F0EEF801222021304600F05E
:1006D000C5F9204600F0E6F801224021304600F03E
:1006E000BDF9204600F0DEF801228021304600F0FE
:1006F000B5F9204600F0D6F8012215022946304609
:1007000000F0ACF9204600F0CDF8634E0122022142
:10071000304600F0A3F9204600F0C4F8012204217D
:10072000304600F09BF9204600F0BCF80122082179
:10073000304600F093F9204600F0B4F80122102171
:10074000304600F08BF9204600F0ACF80122202161
:10075000304600F083F9204600F0A4F80122402141
:10076000304600F07BF9204600F09CF80122802101
:10077000304600F073F9204600F094F80122294633
:10078000304600F06BF9204600F08CF8434E012211
:100790000221304600F062F9204600F083F8012281
:1007A0000421304600F05AF9204600F07BF801227F
:1007B0000821304600F052F9204600F073F801227B
:1007C0001021304600F04AF9204600F06BF8012273
:1007D0002021304600F042F9204600F063F8012263
:1007E0004021304600F03AF9204600F05BF8012243
:1007F0008021304600F032F9204600F053F8012203
:100800002946304600F02AF9204600F04BF8244EE5
:1008100001220221304600F021F9204600F042F882
:1008200001220421304600F019F9204600F03AF880
:1008300001220821304600F011F9204600F032F87C
:1008400001221021304600F009F9204600F02AF874
:1008500001222021304600F001F9204600F022F864
:1008600001224021304600F0F9F8204600F01AF845
:1008700001228021304600F0F1F8204600F012F805
:1008800001222946304600F0E9F82046BDE87040D4
:1008900000F008B8000002400004024000080240D6
:1008A000000C024070B5044600F0DEF80546601CFE
:1008B00002D004480078044400F0D6F8401BA0425F
:1008C000FAD370BD000000202DE9F84F00224FF050
:1008D000010803254FF00F0E0B6808FA02F42340BD
:1008E000A34271D14E68012E05D0022E03D0112EE5
:1008F00001D0122E15D18668570005FA07FC26EAAA
:100900000C06D1F80CC00CFA07FC4CEA060CC0F837
:1009100008C04668A6430C79C4F3001494403443DD
:100920004460C668570005FA07FC8C6826EA0C0686
:10093000BC403443C4604C68022C01D0122C13D14B
:10094000D40800EB8404A346D4F8209054074FEA5F
:10095000D46A0EFA0AF629EA06090E6906FA0AF6B8
:1009600046EA0906CBF8206004680E7924EA0C04F4
:1009700006F00306BE40264306604C68E40056D5E8
:100980002E4C266846F480462660246822F0030632
:1009900004F4804400942A4C3444A446D4F8084813
:1009A0009607370F0EFA07F6B443264EB04201D130
:1009B000002615E0244EB04201D1012610E0234E5E
:1009C000B04202D102260BE031E0214EB04201D10B
:1009D000032605E01F4EB04201D1042600E00726A1
:1009E000BE402643CCF808681B4E34684F689C43D1
:1009F000FF0300D51C433460174E361D34684F6822
:100A00009C43BF0300D51C433460134E0836346842
:100A10004F689C43FF0200D51C4334600E4E0C36D9
:100A200034684F689C43BF0200D51C433460521C9D
:100A3000102AFFF451AFBDE8F88F0000443802409F
:100A40000030014000000240000402400008024063
:100A5000000C024000100240003C01400AB18161DC
:100A600070470904FBE700000148806870470000F8
:100A700000000020024881680278114481607047BC
:100A8000000000200B4810B5016841F400710160BE
:100A9000016841F480610160016841F48071016086
:100AA000032000F061F8002000F006F800F024F8C0
:100AB000002010BD003C024070B50D4D04464FF4BF
:100AC0007A712878B1FBF0F00A490968B1FBF0F0BF
:100AD00000F0D4FA48B9102C07D200222146501E4B
:100AE00000F022F800206C6070BD012070BD000095
:100AF000000000200C0000200A4808B5016841F4FD
:100B000080410160006800F4804000900548001FAB
:100B1000016841F080510160006800F08050009051
:100B200008BD000044380240F0B40E4B1B680C4670
:100B3000C3F30223C3F10705042D00D90425191DB1
:100B4000072901D2002300E0DB1E012606FA05F189
:100B5000491E214099409E40761E16403143F0BC0C
:100B600000F0AFBB0CED00E0064900F0070208689A
:100B70004FF6FF03184040EA0220034A1043086082
:100B8000704700000CED00E00000FA052DE9F04789
:100B90000E46050065D0DFF81481D8F80000F7B2E2
:100BA00000F00F00B04207D288F80070D8F80000BB
:100BB00000F00F00B04254D128683D4C810712D597
:100BC000400703D5206840F4E050206028780007F3
:100BD00003D5206840F4604020602068A96820F0B8
:100BE000F000084320602878C0072DD0304968689D
:100BF0000839012812D0022813D0032811D009681F
:100C0000890700292DDA216821F0030101432160C1
:100C1000FFF72AFF814641F2883A0EE0096889030E
:100C2000EFE709688901ECE7FFF71EFFA0EB090178
:100C3000514502D90320BDE8F0872068696800F0BB
:100C40000C00B0EB810FEFD1D8F80010404601F056
:100C50000F01B14207D90770006800F00F00B042E1
:100C600001D00120E7E72878400705D52068E9682A
:100C700020F4E050084320602878000706D520685B
:100C8000296920F4604040EAC100206000F018F8B3
:100C90002168084AC1F30311515CC8400649086045
:100CA00006480068FFF708FF0020C4E7003C024048
:100CB00008380240941300080C00002004000020B3
:100CC000154810B5006810F00C02144813D04110FC
:100CD000042A0FD0082A0ED10F4C241F2268236843
:100CE00002F03F025B0207D52068C0F38810A0FB2A
:100CF000010106E0084610BD2168C1F38811A1FB7F
:100D000000010023FFF762FA2168C1F30141491C89
:100D10004900B0FBF1F010BD083802400024F40097
:100D20002DE9F84F04006ED02078DFF83C93C0071F
:100D3000A9F104054AD009F104000168C1F3810159
:100D4000012908D00068C0F3810002280AD1D9F82F
:100D50000000400206D52868800337D56068002867
:100D6000E1D033E06068B0F5803F10D0B0F5A02F3F
:100D7000286810D020F480302860286820F4802073
:100D800028606068A8B1FFF76FFE06460DE028688E
:100D900040F48030F4E740F480202860F7E700BF9B
:100DA000FFF762FE801B642873D828688003F7D59C
:100DB0000CE0FFF759FE064605E000BFFFF754FEC2
:100DC000801B6428F0D828688003F7D42078DFF8E7
:100DD0009C8280074FF0000A3ED5A348001D0168A1
:100DE00011F00C0F08D00068C0F3810002280BD16D
:100DF000D9F80000400207D42868800716D5E068BB
:100E0000012800D112E02BE1E068B8B10120C8F858
:100E10000000FFF729FE064605E000BFFFF724FEAD
:100E2000801B0228C0D828688007F7D52868216968
:100E300020F0F80040EAC10028600DE0C8F800A0EA
:100E4000FFF712FE064604E0FFF70EFE801B0228A5
:100E50001FD828688007F7D42078000722D5824E53
:100E600083486169703671B101210160FFF7FCFDB3
:100E7000074604E0FFF7F8FDC01B022809D83068D8
:100E80008007F7D50EE0C0F800A0FFF7EDFD07469C
:100E900005E082E0FFF7E8FDC01B02287DD830683E
:100EA0008007F7D42078400768D5DFF8BCB1002769
:100EB0000BF13C0BDBF80000C0000BD4DBF800109A
:100EC00041F08051CBF80010DBF80000012700F062
:100ED00080500090674E3068C00510D4306840F4F0
:100EE00080703060FFF7C0FD009005E0FFF7BCFDAB
:100EF0000099401A022850D83068C005F6D55A4EDD
:100F0000A0686C3601280FD00528306810D020F07A
:100F100001003060306820F004003060A068B8B193
:100F2000FFF7A2FD00900FE0306840F00100F4E709
:100F300040F004003060F7E7FFF796FD0099411A92
:100F400041F28830814266D830688007F4D50EE0DF
:100F5000FFF78AFD009007E0FFF786FD0099411A30
:100F600041F28830814256D830688007F4D42FB1DE
:100F7000DBF8001021F08051CBF80010A069C8B355
:100F80003949091D0968C1F3810102294AD00228A3
:100F9000504607D0C8F8600000E03CE0FFF764FD71
:100FA00004463BE04746C8F86000FFF75DFD064693
:100FB00005E000BFFFF758FD801B02282BD82868EA
:100FC0008001F7D4D4E907010843A16A2A4A4908F5
:100FD00002EB0141626A41EA8211084394F82C1045
:100FE00040EA0161C9F8001001203866FFF73CFDB6
:100FF000044606E036E000BFFFF736FD001B02287E
:1010000009D828688001F7D52CE000BFFFF72CFD38
:10101000001B022802D90320BDE8F88F2868800150
:10102000F4D41FE00128F7D0D9F80000E26900F4F9
:101030008001914214D1226A00F03F0191420FD108
:1010400047F6C071626A0140914209D1A26A00F478
:101050004031914204D1E16A00F07060884201D0D1
:101060000120D9E70020D7E70438024000004742BA
:10107000800E4742007000400000FFFF10B5401E88
:10108000B0F1807F01D3012010BD4FF0E0246061FA
:101090000F21601700F015F90020A06107202061E2
:1010A000002010BDFEE7000010B54FF4FF740122D0
:1010B00021460A48FFF7D2FC012221460848FFF7E3
:1010C000CDFC012221460748FFF7C8FC2146BDE8B8
:1010D000104001220448FFF7C1BC0000000002409C
:1010E0000004024000080240000C02402DE9F047D5
:1010F00086B014216846FFF7A1F83548002401683E
:1011000041F080010160016801F0800105910168F2
:1011100041F004010160016801F0040105910168DA
:1011200041F001010160016801F0010105910168D0
:1011300041F002010160016801F0020105910168BE
:1011400041F0080101600068224F00F008004FF4F0
:10115000FF750590002229463846FFF77FFCDFF82F
:101160007880002229464046FFF778FCDFF86C9033
:10117000002229464846FFF771FCDFF864A00022F0
:1011800029465046FFF76AFC01260095CDE9016427
:10119000694638460394FFF797FB0095CDE9016453
:1011A000694640460394FFF78FFB0095CDE9016443
:1011B000694648460394FFF787FB0095CDE9016433
:1011C000694650460394FFF77FFB06B0BDE8F08701
:1011D0003038024000080240000002400004024093
:1011E000000C0240FEE7704770477047FFF742BCB3
:1011F00030B593B030216846FFF720F814210CA8D1
:10120000FFF71CF814480024016841F08051016088
:10121000006800F0805011901048016821F44041AE
:1012200041F4004101600068012500F44040119044
:1012300028040694CDE900506846FFF771FD0F20A1
:101240000C90CDE90D540F9400210CA81094FFF7D9
:101250009DFC13B030BD00004038024000700040DB
:101260000548016841F47001016003494FF00060D6
:10127000803908607047000088ED00E010B54FF439
:10128000FF74002221460A48FFF7E8FB00222146AE
:101290000848FFF7E3FB002221460748FFF7DEFB83
:1012A0002146BDE8104000220448FFF7D7BB0000EC
:1012B000000002400004024000080240000C02400E
:1012C000FEE70907090E002804DB00F1E02080F8A2
:1012D0000014704700F00F0000F1E02080F8141DAA
:1012E000704702E008C8121F08C1002AFAD17047EF
:1012F0007047002001E001C1121F002AFBD1704796
:10130000FFF7C0FBFFF774FFFFF7F0FE4FF4FA752D
:101310000024FFF7C9FE2846FFF7C4FAFFF7AEFF27
:101320002846FFF7BFFAFFF7ABF9C820FFF7BAFA74
:10133000FFF7BAFE6420FFF7B5FAFFF79FFF6420BE
:10134000FFF7B0FAFFF70AF9C820FFF7ABFAFFF78B
:1013500095FFC820FFF7A6FAFFF76EF8C820FFF741
:10136000A1FA00BFFEF7A8FFC820FFF79BFAFFF71E
:1013700085FF6420FFF796FAFEF7FEFFC820FFF70F
:1013800091FAFFF77BFF6420FFF78CFA641C0A2CAC
:10139000E8DBBDE7000000000000000001020304DC
:1013A00006070809C4130008000000201000000010
:1013B000E2120008D413000810000020000400000E
:1013C000F212000801000000100000000000000000
:0413D0000024F40001
:040000050800019559
:00000001FF
